{"abi":[{"type":"function","name":"balanceOf","inputs":[{"name":"","type":"address","internalType":"address"}],"outputs":[{"name":"","type":"uint256","internalType":"uint256"}],"stateMutability":"view"},{"type":"function","name":"decimals","inputs":[],"outputs":[{"name":"","type":"uint8","internalType":"uint8"}],"stateMutability":"view"},{"type":"function","name":"mint","inputs":[{"name":"to","type":"address","internalType":"address"},{"name":"a","type":"uint256","internalType":"uint256"}],"outputs":[],"stateMutability":"nonpayable"},{"type":"function","name":"name","inputs":[],"outputs":[{"name":"","type":"string","internalType":"string"}],"stateMutability":"view"},{"type":"function","name":"symbol","inputs":[],"outputs":[{"name":"","type":"string","internalType":"string"}],"stateMutability":"view"},{"type":"function","name":"transfer","inputs":[{"name":"to","type":"address","internalType":"address"},{"name":"a","type":"uint256","internalType":"uint256"}],"outputs":[{"name":"","type":"bool","internalType":"bool"}],"stateMutability":"nonpayable"},{"type":"function","name":"transferFrom","inputs":[{"name":"f","type":"address","internalType":"address"},{"name":"to","type":"address","internalType":"address"},{"name":"a","type":"uint256","internalType":"uint256"}],"outputs":[{"name":"","type":"bool","internalType":"bool"}],"stateMutability":"nonpayable"}],"bytecode":{"object":"0x60806040526040518060400160405280600d81526020017f57726170706564204574686572000000000000000000000000000000000000008152505f908162000049919062000323565b506040518060400160405280600481526020017f57455448000000000000000000000000000000000000000000000000000000008152506001908162000090919062000323565b50601260025f6101000a81548160ff021916908360ff160217905550348015620000b8575f80fd5b5062000407565b5f81519050919050565b7f4e487b71000000000000000000000000000000000000000000000000000000005f52604160045260245ffd5b7f4e487b71000000000000000000000000000000000000000000000000000000005f52602260045260245ffd5b5f60028204905060018216806200013b57607f821691505b602082108103620001515762000150620000f6565b5b50919050565b5f819050815f5260205f209050919050565b5f6020601f8301049050919050565b5f82821b905092915050565b5f60088302620001b57fffffffffffffffffffffffffffffffffffffffffffffffffffffffffffffffff8262000178565b620001c1868362000178565b95508019841693508086168417925050509392505050565b5f819050919050565b5f819050919050565b5f6200020b62000205620001ff84620001d9565b620001e2565b620001d9565b9050919050565b5f819050919050565b6200022683620001eb565b6200023e620002358262000212565b84845462000184565b825550505050565b5f90565b6200025462000246565b620002618184846200021b565b505050565b5b8181101562000288576200027c5f826200024a565b60018101905062000267565b5050565b601f821115620002d757620002a18162000157565b620002ac8462000169565b81016020851015620002bc578190505b620002d4620002cb8562000169565b83018262000266565b50505b505050565b5f82821c905092915050565b5f620002f95f1984600802620002dc565b1980831691505092915050565b5f620003138383620002e8565b9150826002028217905092915050565b6200032e82620000bf565b67ffffffffffffffff8111156200034a5762000349620000c9565b5b62000356825462000123565b620003638282856200028c565b5f60209050601f83116001811462000399575f841562000384578287015190505b62000390858262000306565b865550620003ff565b601f198416620003a98662000157565b5f5b82811015620003d257848901518255600182019150602085019450602081019050620003ab565b86831015620003f25784890151620003ee601f891682620002e8565b8355505b6001600288020188555050505b505050505050565b61098e80620004155f395ff3fe608060405234801561000f575f80fd5b506004361061007b575f3560e01c806340c10f191161005957806340c10f19146100eb57806370a082311461010757806395d89b4114610137578063a9059cbb146101555761007b565b806306fdde031461007f57806323b872dd1461009d578063313ce567146100cd575b5f80fd5b610087610185565b6040516100949190610607565b60405180910390f35b6100b760048036038101906100b291906106b8565b610210565b6040516100c49190610722565b60405180910390f35b6100d5610342565b6040516100e29190610756565b60405180910390f35b6101056004803603810190610100919061076f565b610354565b005b610121600480360381019061011c91906107ad565b6103ab565b60405161012e91906107e7565b60405180910390f35b61013f6103c0565b60405161014c9190610607565b60405180910390f35b61016f600480360381019061016a919061076f565b61044c565b60405161017c9190610722565b60405180910390f35b5f80546101919061082d565b80601f01602080910402602001604051908101604052809291908181526020018280546101bd9061082d565b80156102085780601f106101df57610100808354040283529160200191610208565b820191905f5260205f20905b8154815290600101906020018083116101eb57829003601f168201915b505050505081565b5f8160035f8673ffffffffffffffffffffffffffffffffffffffff1673ffffffffffffffffffffffffffffffffffffffff1681526020019081526020015f20541015610291576040517f08c379a0000000000000000000000000000000000000000000000000000000008152600401610288906108a7565b60405180910390fd5b8160035f8673ffffffffffffffffffffffffffffffffffffffff1673ffffffffffffffffffffffffffffffffffffffff1681526020019081526020015f205f8282546102dd91906108f2565b925050819055508160035f8573ffffffffffffffffffffffffffffffffffffffff1673ffffffffffffffffffffffffffffffffffffffff1681526020019081526020015f205f8282546103309190610925565b92505081905550600190509392505050565b60025f9054906101000a900460ff1681565b8060035f8473ffffffffffffffffffffffffffffffffffffffff1673ffffffffffffffffffffffffffffffffffffffff1681526020019081526020015f205f8282546103a09190610925565b925050819055505050565b6003602052805f5260405f205f915090505481565b600180546103cd9061082d565b80601f01602080910402602001604051908101604052809291908181526020018280546103f99061082d565b80156104445780601f1061041b57610100808354040283529160200191610444565b820191905f5260205f20905b81548152906001019060200180831161042757829003601f168201915b505050505081565b5f8160035f3373ffffffffffffffffffffffffffffffffffffffff1673ffffffffffffffffffffffffffffffffffffffff1681526020019081526020015f205410156104cd576040517f08c379a00000000000000000000000000000000000000000000000000000000081526004016104c4906108a7565b60405180910390fd5b8160035f3373ffffffffffffffffffffffffffffffffffffffff1673ffffffffffffffffffffffffffffffffffffffff1681526020019081526020015f205f82825461051991906108f2565b925050819055508160035f8573ffffffffffffffffffffffffffffffffffffffff1673ffffffffffffffffffffffffffffffffffffffff1681526020019081526020015f205f82825461056c9190610925565b925050819055506001905092915050565b5f81519050919050565b5f82825260208201905092915050565b5f5b838110156105b4578082015181840152602081019050610599565b5f8484015250505050565b5f601f19601f8301169050919050565b5f6105d98261057d565b6105e38185610587565b93506105f3818560208601610597565b6105fc816105bf565b840191505092915050565b5f6020820190508181035f83015261061f81846105cf565b905092915050565b5f80fd5b5f73ffffffffffffffffffffffffffffffffffffffff82169050919050565b5f6106548261062b565b9050919050565b6106648161064a565b811461066e575f80fd5b50565b5f8135905061067f8161065b565b92915050565b5f819050919050565b61069781610685565b81146106a1575f80fd5b50565b5f813590506106b28161068e565b92915050565b5f805f606084860312156106cf576106ce610627565b5b5f6106dc86828701610671565b93505060206106ed86828701610671565b92505060406106fe868287016106a4565b9150509250925092565b5f8115159050919050565b61071c81610708565b82525050565b5f6020820190506107355f830184610713565b92915050565b5f60ff82169050919050565b6107508161073b565b82525050565b5f6020820190506107695f830184610747565b92915050565b5f806040838503121561078557610784610627565b5b5f61079285828601610671565b92505060206107a3858286016106a4565b9150509250929050565b5f602082840312156107c2576107c1610627565b5b5f6107cf84828501610671565b91505092915050565b6107e181610685565b82525050565b5f6020820190506107fa5f8301846107d8565b92915050565b7f4e487b71000000000000000000000000000000000000000000000000000000005f52602260045260245ffd5b5f600282049050600182168061084457607f821691505b60208210810361085757610856610800565b5b50919050565b7f62616c00000000000000000000000000000000000000000000000000000000005f82015250565b5f610891600383610587565b915061089c8261085d565b602082019050919050565b5f6020820190508181035f8301526108be81610885565b9050919050565b7f4e487b71000000000000000000000000000000000000000000000000000000005f52601160045260245ffd5b5f6108fc82610685565b915061090783610685565b925082820390508181111561091f5761091e6108c5565b5b92915050565b5f61092f82610685565b915061093a83610685565b9250828201905080821115610952576109516108c5565b5b9291505056fea264697066735822122008b96527b200b228ea0e810dea751b2d1239f5c30660822253c7e803d90b9d8d64736f6c63430008180033","linkReferences":{}},"methodIdentifiers":{"balanceOf(address)":"70a08231","decimals()":"313ce567","mint(address,uint256)":"40c10f19","name()":"06fdde03","symbol()":"95d89b41","transfer(address,uint256)":"a9059cbb","transferFrom(address,address,uint256)":"23b872dd"},"id":21}