{"abi":[{"type":"constructor","inputs":[{"name":"w","type":"address","internalType":"address"}],"stateMutability":"nonpayable"},{"type":"function","name":"credit","inputs":[{"name":"","type":"address","internalType":"address"}],"outputs":[{"name":"","type":"uint256","internalType":"uint256"}],"stateMutability":"view"},{"type":"function","name":"deposit","inputs":[{"name":"a","type":"uint256","internalType":"uint256"}],"outputs":[],"stateMutability":"nonpayable"},{"type":"function","name":"redeem","inputs":[{"name":"a","type":"uint256","internalType":"uint256"}],"outputs":[],"stateMutability":"nonpayable"},{"type":"function","name":"settle","inputs":[{"name":"fee","type":"uint256","internalType":"uint256"}],"outputs":[],"stateMutability":"nonpayable"},{"type":"function","name":"weth","inputs":[],"outputs":[{"name":"","type":"address","internalType":"contract MockWETH"}],"stateMutability":"view"}],"bytecode":{"object":"0x608060405234801561000f575f80fd5b5060405161087a38038061087a833981810160405281019061003191906100d4565b805f806101000a81548173ffffffffffffffffffffffffffffffffffffffff021916908373ffffffffffffffffffffffffffffffffffffffff160217905550506100ff565b5f80fd5b5f73ffffffffffffffffffffffffffffffffffffffff82169050919050565b5f6100a38261007a565b9050919050565b6100b381610099565b81146100bd575f80fd5b50565b5f815190506100ce816100aa565b92915050565b5f602082840312156100e9576100e8610076565b5b5f6100f6848285016100c0565b91505092915050565b61076e8061010c5f395ff3fe608060405234801561000f575f80fd5b5060043610610055575f3560e01c80633fc8cef3146100595780638df8280014610077578063b6b55f2514610093578063d5d44d80146100af578063db006a75146100df575b5f80fd5b6100616100fb565b60405161006e919061048c565b60405180910390f35b610091600480360381019061008c91906104dc565b61011e565b005b6100ad60048036038101906100a891906104dc565b6101a2565b005b6100c960048036038101906100c49190610542565b610295565b6040516100d6919061057c565b60405180910390f35b6100f960048036038101906100f491906104dc565b6102aa565b005b5f8054906101000a900473ffffffffffffffffffffffffffffffffffffffff1681565b8060015f3373ffffffffffffffffffffffffffffffffffffffff1673ffffffffffffffffffffffffffffffffffffffff1681526020019081526020015f20540360015f3373ffffffffffffffffffffffffffffffffffffffff1673ffffffffffffffffffffffffffffffffffffffff1681526020019081526020015f208190555050565b5f8054906101000a900473ffffffffffffffffffffffffffffffffffffffff1673ffffffffffffffffffffffffffffffffffffffff166323b872dd3330846040518463ffffffff1660e01b81526004016101fe939291906105a4565b6020604051808303815f875af115801561021a573d5f803e3d5ffd5b505050506040513d601f19601f8201168201806040525081019061023e919061060e565b508060015f3373ffffffffffffffffffffffffffffffffffffffff1673ffffffffffffffffffffffffffffffffffffffff1681526020019081526020015f205f82825461028b9190610666565b9250508190555050565b6001602052805f5260405f205f915090505481565b8060015f3373ffffffffffffffffffffffffffffffffffffffff1673ffffffffffffffffffffffffffffffffffffffff1681526020019081526020015f2054101561032a576040517f08c379a0000000000000000000000000000000000000000000000000000000008152600401610321906106f3565b60405180910390fd5b8060015f3373ffffffffffffffffffffffffffffffffffffffff1673ffffffffffffffffffffffffffffffffffffffff1681526020019081526020015f205f82825403925050819055505f8054906101000a900473ffffffffffffffffffffffffffffffffffffffff1673ffffffffffffffffffffffffffffffffffffffff1663a9059cbb33836040518363ffffffff1660e01b81526004016103ce929190610711565b6020604051808303815f875af11580156103ea573d5f803e3d5ffd5b505050506040513d601f19601f8201168201806040525081019061040e919061060e565b5050565b5f73ffffffffffffffffffffffffffffffffffffffff82169050919050565b5f819050919050565b5f61045461044f61044a84610412565b610431565b610412565b9050919050565b5f6104658261043a565b9050919050565b5f6104768261045b565b9050919050565b6104868161046c565b82525050565b5f60208201905061049f5f83018461047d565b92915050565b5f80fd5b5f819050919050565b6104bb816104a9565b81146104c5575f80fd5b50565b5f813590506104d6816104b2565b92915050565b5f602082840312156104f1576104f06104a5565b5b5f6104fe848285016104c8565b91505092915050565b5f61051182610412565b9050919050565b61052181610507565b811461052b575f80fd5b50565b5f8135905061053c81610518565b92915050565b5f60208284031215610557576105566104a5565b5b5f6105648482850161052e565b91505092915050565b610576816104a9565b82525050565b5f60208201905061058f5f83018461056d565b92915050565b61059e81610507565b82525050565b5f6060820190506105b75f830186610595565b6105c46020830185610595565b6105d1604083018461056d565b949350505050565b5f8115159050919050565b6105ed816105d9565b81146105f7575f80fd5b50565b5f81519050610608816105e4565b92915050565b5f60208284031215610623576106226104a5565b5b5f610630848285016105fa565b91505092915050565b7f4e487b71000000000000000000000000000000000000000000000000000000005f52601160045260245ffd5b5f610670826104a9565b915061067b836104a9565b925082820190508082111561069357610692610639565b5b92915050565b5f82825260208201905092915050565b7f6e6f2063726564697400000000000000000000000000000000000000000000005f82015250565b5f6106dd600983610699565b91506106e8826106a9565b602082019050919050565b5f6020820190508181035f83015261070a816106d1565b9050919050565b5f6040820190506107245f830185610595565b610731602083018461056d565b939250505056fea26469706673582212200fc9925948b97493408b48abef6331573d621afae0835cbfedaf54109594b63364736f6c63430008180033","linkReferences":{}},"methodIdentifiers":{"credit(address)":"d5d44d80","deposit(uint256)":"b6b55f25","redeem(uint256)":"db006a75","settle(uint256)":"8df82800","weth()":"3fc8cef3"},"id":19}