{"abi":[{"type":"constructor","inputs":[{"name":"w","type":"address","internalType":"address"}],"stateMutability":"nonpayable"},{"type":"function","name":"credit","inputs":[{"name":"","type":"address","internalType":"address"}],"outputs":[{"name":"","type":"uint256","internalType":"uint256"}],"stateMutability":"view"},{"type":"function","name":"deposit","inputs":[{"name":"a","type":"uint256","internalType":"uint256"}],"outputs":[],"stateMutability":"nonpayable"},{"type":"function","name":"redeem","inputs":[{"name":"a","type":"uint256","internalType":"uint256"}],"outputs":[],"stateMutability":"nonpayable"},{"type":"function","name":"settle","inputs":[{"name":"fee","type":"uint256","internalType":"uint256"}],"outputs":[],"stateMutability":"nonpayable"},{"type":"function","name":"weth","inputs":[],"outputs":[{"name":"","type":"address","internalType":"contract MockWETH"}],"stateMutability":"view"}],"bytecode":{"object":"0x608060405234801561000f575f80fd5b506040516108bf3803806108bf833981810160405281019061003191906100d4565b805f806101000a81548173ffffffffffffffffffffffffffffffffffffffff021916908373ffffffffffffffffffffffffffffffffffffffff160217905550506100ff565b5f80fd5b5f73ffffffffffffffffffffffffffffffffffffffff82169050919050565b5f6100a38261007a565b9050919050565b6100b381610099565b81146100bd575f80fd5b50565b5f815190506100ce816100aa565b92915050565b5f602082840312156100e9576100e8610076565b5b5f6100f6848285016100c0565b91505092915050565b6107b38061010c5f395ff3fe608060405234801561000f575f80fd5b5060043610610055575f3560e01c80633fc8cef3146100595780638df8280014610077578063b6b55f2514610093578063d5d44d80146100af578063db006a75146100df575b5f80fd5b6100616100fb565b60405161006e919061049e565b60405180910390f35b610091600480360381019061008c91906104ee565b61011e565b005b6100ad60048036038101906100a891906104ee565b6101ab565b005b6100c960048036038101906100c49190610554565b61029e565b6040516100d6919061058e565b60405180910390f35b6100f960048036038101906100f491906104ee565b6102b3565b005b5f8054906101000a900473ffffffffffffffffffffffffffffffffffffffff1681565b8060015f3373ffffffffffffffffffffffffffffffffffffffff1673ffffffffffffffffffffffffffffffffffffffff1681526020019081526020015f205461016791906105d4565b60015f3373ffffffffffffffffffffffffffffffffffffffff1673ffffffffffffffffffffffffffffffffffffffff1681526020019081526020015f208190555050565b5f8054906101000a900473ffffffffffffffffffffffffffffffffffffffff1673ffffffffffffffffffffffffffffffffffffffff166323b872dd3330846040518463ffffffff1660e01b815260040161020793929190610616565b6020604051808303815f875af1158015610223573d5f803e3d5ffd5b505050506040513d601f19601f820116820180604052508101906102479190610680565b508060015f3373ffffffffffffffffffffffffffffffffffffffff1673ffffffffffffffffffffffffffffffffffffffff1681526020019081526020015f205f82825461029491906106ab565b9250508190555050565b6001602052805f5260405f205f915090505481565b8060015f3373ffffffffffffffffffffffffffffffffffffffff1673ffffffffffffffffffffffffffffffffffffffff1681526020019081526020015f20541015610333576040517f08c379a000000000000000000000000000000000000000000000000000000000815260040161032a90610738565b60405180910390fd5b8060015f3373ffffffffffffffffffffffffffffffffffffffff1673ffffffffffffffffffffffffffffffffffffffff1681526020019081526020015f205f82825461037f91906105d4565b925050819055505f8054906101000a900473ffffffffffffffffffffffffffffffffffffffff1673ffffffffffffffffffffffffffffffffffffffff1663a9059cbb33836040518363ffffffff1660e01b81526004016103e0929190610756565b6020604051808303815f875af11580156103fc573d5f803e3d5ffd5b505050506040513d601f19601f820116820180604052508101906104209190610680565b5050565b5f73ffffffffffffffffffffffffffffffffffffffff82169050919050565b5f819050919050565b5f61046661046161045c84610424565b610443565b610424565b9050919050565b5f6104778261044c565b9050919050565b5f6104888261046d565b9050919050565b6104988161047e565b82525050565b5f6020820190506104b15f83018461048f565b92915050565b5f80fd5b5f819050919050565b6104cd816104bb565b81146104d7575f80fd5b50565b5f813590506104e8816104c4565b92915050565b5f60208284031215610503576105026104b7565b5b5f610510848285016104da565b91505092915050565b5f61052382610424565b9050919050565b61053381610519565b811461053d575f80fd5b50565b5f8135905061054e8161052a565b92915050565b5f60208284031215610569576105686104b7565b5b5f61057684828501610540565b91505092915050565b610588816104bb565b82525050565b5f6020820190506105a15f83018461057f565b92915050565b7f4e487b71000000000000000000000000000000000000000000000000000000005f52601160045260245ffd5b5f6105de826104bb565b91506105e9836104bb565b9250828203905081811115610601576106006105a7565b5b92915050565b61061081610519565b82525050565b5f6060820190506106295f830186610607565b6106366020830185610607565b610643604083018461057f565b949350505050565b5f8115159050919050565b61065f8161064b565b8114610669575f80fd5b50565b5f8151905061067a81610656565b92915050565b5f60208284031215610695576106946104b7565b5b5f6106a28482850161066c565b91505092915050565b5f6106b5826104bb565b91506106c0836104bb565b92508282019050808211156106d8576106d76105a7565b5b92915050565b5f82825260208201905092915050565b7f6e6f2063726564697400000000000000000000000000000000000000000000005f82015250565b5f6107226009836106de565b915061072d826106ee565b602082019050919050565b5f6020820190508181035f83015261074f81610716565b9050919050565b5f6040820190506107695f830185610607565b610776602083018461057f565b939250505056fea26469706673582212207e3bd72a9caa5f70506c26941a12c6a4bf4ee11f4e5f316c69e8091b592f79e564736f6c63430008180033","linkReferences":{}},"methodIdentifiers":{"credit(address)":"d5d44d80","deposit(uint256)":"b6b55f25","redeem(uint256)":"db006a75","settle(uint256)":"8df82800","weth()":"3fc8cef3"},"id":20}